:020000041000EA
:1000000000B5324B212058609868022188439860DF
:10001000D860186158612E4B002199600221596106
:100020000121F02299502B49196001219960352056
:1000300000F044F80222904214D00621196600F024
:1000400034F8196E01211966002018661A6600F04E
:100050002CF8196E196E196E052000F02FF8012189
:100060000842F9D1002199601B49196000215960AB
:100070001A491B48016001219960EB211966A021F2
:10008000196600F012F800219960164914480160C1
:100090000121996001BC002800D000471248134993
:1000A000086003C880F30888084703B5996A0420EC
:1000B0000142FBD001200142F8D103BD02B5186610
:1000C0001866FFF7F2FF186E186E02BD00000240BE
:1000D000000000180000070000035F00212200005C
:1000E000F4000018222000A00001001008ED00E03C
:1000F00000000000000000000000000074B24E7A12
:1001000000200420F7010010C3010010C5010010F9
:10011000C1010010C1010010C1010010C101001097
:10012000C1010010C1010010C1010010C701001081
:10013000C1010010C1010010C9010010CB01001065
:10014000CD010010CD010010CD010010CD01001037
:10015000CD010010CD010010CD010010CD01001027
:10016000CD010010CD010010CD010010CD01001017
:10017000CD010010CD010010CD010010CD01001007
:10018000CD010010CD010010CD010010CD010010F7
:10019000CD010010CD010010CD010010CD010010E7
:1001A000CD010010CD010010CD010010CD010010D7
:1001B000CD010010CD010010CD010010CD010010C7
:1001C00000BE00BE00BE00BE00BE00BE00F04BF888
:1001D000103800BEF2EB8871C45D0210F05D0210B1
:1001E0003402001090A31AE700202149086006C8D5
:1001F00081F3088810471F48006800282FD10DA4FC
:100200000ECC002902D000F012F8F9E71A491B4A77
:10021000002000E001C19142FCD1194988471949E9
:1002200088471949884700BEFDE701C901C29A42C3
:10023000FBD37047F05D0210C0000020781400204E
:10024000A87102100000042000000420A871021010
:1002500000100420001004200000000070470B482C
:100260000CF0B8FA0047EFF30580C0B27047000009
:1002700008ED00E0000000D078140020FC470220C8
:1002800009AB0010ED8700102DAC00105756000090
:1002900006005250ABB36053843E02100600525029
:1002A000861C0302943E0210060052505422A29D66
:1002B000A43E021005005250DE65F468A8710210D9
:1002C000F8B5C0460448054B10B5834203D0044B33
:1002D000002B00D0984710BD78140020781400201F
:1002E0000000000006480749091A8B10C90FC918F9
:1002F00010B5491003D0044B002B00D0984710BD17
:1003000078140020781400200000000010B5074C7D
:100310002378002B09D1FFF7D5FF054B002B02D026
:10032000044800E000BF0123237010BD80150020A9
:1003300000000000A81D0210054B10B5002B03D0D3
:100340000449054800E000BFFFF7CCFF10BDC046E0
:100350000000000084150020A81D02107047C04650
:100360000122014B1A6070474C200020D0238022CC
:100370001B0612015A610122014B1A607047C046E8
:1003800040200020D02380221B0612019A61002207
:10039000014B1A607047C04640200020D0238022C5
:1003A0001B0652005A61024BFF3A1A607047C04662
:1003B00034200020D02380221B0652009A610022A4
:1003C000014B1A607047C04634200020D0238022A1
:1003D0001B0652015A610122014B1A607047C04648
:1003E00030200020D02380221B0652019A61002277
:1003F000014B1A607047C04630200020D023802275
:100400001B0692005A610122014B1A607047C046D8
:1004100038200020D02380221B0692009A610022FF
:10042000014B1A607047C04638200020D02380223C
:100430001B06D2005A610122014B1A607047C04668
:100440003C200020D02380221B06D2009A6100228B
:10045000014B1A607047C0463C200020802210B536
:1004600000210248D2000DF0E9F910BD2841022018
:1004700070B5D02580242D06A40200210448AC616B
:1004800009F0AEFE002102486C6109F0A9FEF4E714
:10049000A086010010B505480DF088FC04480DF059
:1004A00085FC04480DF082FC10BDC046A81D02105A
:1004B000CC1D0210EC1D0210074A10B513685942FA
:1004C00059411160002B03D104480DF06FFC10BDA1
:1004D00003480DF06BFCFAE770060020001E0210C6
:1004E000101E021010B503480DF060FC0122024BF3
:1004F0001A6010BD201E02105C20002070B5084C50
:10050000084D2600B4362178626828000C340DF0BE
:100510004DFCB442F7D10A200DF0A0FA70BDC046E0
:1005200078060020501E021070B5084C084D2600B9
:100530004536FF362178626828000C340DF036FC11
:10054000B442F7D10A200DF089FA70BD3C070020B3
:10055000501E0210D0228023F0B5DE4657464E468C
:10056000454612061B01E0B55361A34B01269B468D
:10057000012359460B608021490051619F49A04FDA
:100580000B608A468021890051619E4983B00B60CF
:1005900089468021490151619B499C480B608846EE
:1005A0008021C90051613B600DF000FC98480DF0BE
:1005B000FDFB98480DF0FAFB974DFA2080000DF0F6
:1005C00007FC0400431C00D1A3E02B78984200D123
:1005D000B5E02B7B984200D1B9E02B7E984200D148
:1005E000BDE02423EB5C984200D1C0E03023EB5CFB
:1005F000984200D1C3E03C23EB5C984200D1C6E0B6
:100600004823EB5C984200D1C9E05423EB5C98424C
:1006100000D1CCE06023EB5C984200D1CFE06C23AA
:10062000EB5C98427BD07823EB5C984200D1CEE023
:100630008423EB5C984200D1D1E09023EB5C98429C
:1006400000D1D4E09C23EB5C984200D1D1E0A823F8
:10065000EB5C0E22984263D0712C69D00136642184
:1006600030000CF0E5F80029A7D11B200DF0F6F9B9
:1006700037200DF0F3F969480DF098FBD0200121E7
:10068000000642684368D2090A409B090B405200A9
:10069000D218436852005B090B40D21843685200DD
:1006A0001B090B40D21843685200DB080B40D218DC
:1006B000436852009B080B40D2B2D21843685200E4
:1006C0005B080B40D2B2D21843685200194052184E
:1006D000D2B2310052480DF069FB3B6842460193AB
:1006E00053461B68594600934B4612681B680968BD
:1006F0004C480DF05BFB1B200DF0B0F938200DF0DD
:10070000ADF9FA2080000DF063FB0400431C00D01B
:100710005BE70DF0CBFA44480DF048FB9EE7092259
:1007200053009B189B00EB189B689847712C95D140
:1007300003B03CBC90469946A246AB46F0BD0022B1
:1007400053009B189B00EB189B689847EEE701222B
:1007500053009B189B00EB189B689847E6E7022222
:1007600053009B189B00EB189B689847DEE7032219
:1007700053009B189B00EB189B689847D6E7042210
:1007800053009B189B00EB189B689847CEE7052207
:1007900053009B189B00EB189B689847C6E70622FE
:1007A00053009B189B00EB189B689847BEE70722F5
:1007B00053009B189B00EB189B689847B6E70822EC
:1007C00053009B189B00EB189B689847AEE70A22E2
:1007D00053009B189B00EB189B689847A6E70B22D9
:1007E00053009B189B00EB189B6898479EE70C22D0
:1007F00096E70D2294E7C0464020002034200020D8
:100800003C2000203820002030200020741E0210E0
:100810007C1E0210841E0210780600208C1E02101E
:10082000941E0210A41E0210CC1E021010B50F4C14
:100830002368002B0CD1D0238022FA201B06520102
:100840005A610021800009F0CBFC0123236010BD18
:10085000D0238022FA201B0652019A6100218000D9
:1008600009F0BEFC00232360F1E7C04630200020E1
:100870007047C046F8B5D0248027802524063F0263
:10088000ED0101200021A76209F0AAFC012000214E
:10089000A56209F0A5FC656201200021A56109F0AF
:1008A0009FFC0726012000216762A76109F098FCE0
:1008B00001200021A56209F093FC013E6562012040
:1008C0000021A56109F08CFC002EEBD1D0248025FD
:1008D00080232406DB012D02A5620120A3620021F2
:1008E00009F07EFC642302E0013B002B0FD062681C
:1008F0002A42F9D10124D02380221B06D2015A6258
:10090000012000219A6109F06BFC2000F8BD002451
:10091000F1E7C0468023F0B5C646D02580261B02ED
:1009200004000827984600B52D06F60116E0434658
:100930006B62AB610120002109F052FC0120002113
:10094000AE6209F04DFC64006E6201200021AE61D0
:10095000013F09F045FCE4B2002F05D063B2002B43
:10096000E5DA4346AB62E5E7D02480258023240600
:10097000DB012D02A5620120A362002109F030FCF9
:10098000642302E0013B002B11D062682A42F9D1B6
:100990000124D02380221B06D2015A6201200021AB
:1009A0009A6109F01DFC200004BC9046F0BD0024B3
:1009B000EFE7C04610B503480BF00CFF0021030021
:1009C0000020984755420000F0B5C646224D00B5BC
:1009D0002C68002C2AD0D0238022FA201B0652013A
:1009E0009A610021800009F0FBFB002309242B60A1
:1009F0008027D0267F01B84636064346FA20736129
:100A00000021800009F0ECFB01232B60012C0AD0AF
:100A1000FA200021B761800009F0E2FB0023023CCC
:100A20002B60002CE9D104BC9046F0BDD026802775
:100A3000FA2036067F0100218000776109F0D0FBA3
:100A40000123FA202B600021B761800009F0C8FB68
:100A50002C600824CCE7C046302000200123074A40
:100A600010B511685B1A136003D005480DF09EF9AC
:100A700010BD04480DF09AF9FAE7C046340700208B
:100A8000D01E0210F41E02100023F0B54E46994607
:100A90003B4B57464546DE469B468023E0B51B024E
:100AA000D024802598469A464E4683B001AF24064E
:100AB000ED01F310503B3B7000237B701033BB7093
:100AC0005346012063620021A36109F089FB0120E4
:100AD00000216562A56109F083FB5B461879B14688
:100AE0004000C0B2FFF716FF3E00FFF7C3FE3078AC
:100AF000FFF710FF6B46013607339E42F5D1012008
:100B00000021A56209F06CFB434601200021A3628D
:100B100009F066FB4346012063620021A36109F0EE
:100B20005FFB002101206562A56109F059FB5B466E
:100B300018794000C0B2FFF7EDFE4020FFF7EAFE53
:100B400080231E000F4B013E1878FFF7E3FE002EB6
:100B5000F8D101200021A56209F042FB4E46434630
:100B600001200021A362083609F03AFB402EA0D1F3
:100B700003B03CBC90469946A246AB46F0BDC04689
:100B80002C070020CC200020F8B54E46DE46574604
:100B90004546E0B5060019F07BF9002860D08027B3
:100BA000324B8346D0243F029A46B946B3442406CA
:100BB00035780120203DAB005D192D4B00219C466E
:100BC0004B466362A361654409F00AFB8023DB01A5
:100BD000002163620120A36109F002FB53461879EA
:100BE0004000C0B2FFF796FE4020FFF793FE6B1D5A
:100BF000984628780135FFF78DFEA845F9D1802564
:100C0000ED0101200021A56209F0EAFA012000218E
:100C1000A76209F0E5FA012000216762A76109F0E7
:100C2000DFFA002101206562A56109F0D9FA534677
:100C3000187901364000C0B2FFF76CFE4020FFF784
:100C400069FE0020FFF766FE01200021A56209F081
:100C5000C7FA01200021A76209F0C2FAB345A7D163
:100C60003CBC90469946A246AB46F8BD2C070020F6
:100C70002C3802100EB400B59AB01BAA02CA01A803
:100C800000921AF0CFFA01A8FFF77EFF1AB008BC55
:100C900003B0184770B58023D0251B022D066B6268
:100CA0000600AB610C000120002109F099FA8023B5
:100CB000DB016B620120AB61002109F091FA307910
:100CC000E51C4000C0B2FFF725FEFFF7D3FD2078FA
:100CD0000134FFF71FFEAC42F7D1D0248023240655
:100CE000DB01A3620120002109F07AFA80231B02B4
:100CF00001200021A36209F073FA70BDF0B5DE4651
:100D00004E4657464546E0B58F4B8FB01E68FFF7FD
:100D1000BBFE33780C2B00D111E1002398468B4B9E
:100D200001279A468A4B7F429B4653461B680137F0
:100D30009F4200DAC2E0FB1A062B56DC5B461B68BA
:100D40009F4200D1BCE001AB18007268814999460E
:100D50000BF0DCFC33780A2B00D1BCE00B2B3DD12F
:100D600043466C465B075B0F503B23700023637068
:100D70001033A370D02580232D061B026B62012047
:100D8000AB61002109F02CFA8023DB016B620120AA
:100D9000AB61002109F024FA6F4BE51C1879400083
:100DA000C0B2FFF7B7FDFFF765FD20780134FFF70C
:100DB000B1FDAC42F7D1D02480232406DB01012011
:100DC0000021A36209F00CFA80231B0201200021FC
:100DD000A36209F005FA4846FFF7D6FE01239C46B8
:100DE0001036E04433780C2B9FD1574B18680378AA
:100DF0000C2B00D19BE003000022197C1033013240
:100E00000C29FAD15946096800238A4207DC027C82
:100E10001900103001330C2AF9D15B4619604346A2
:100E2000052B44DCDC0003236B4499464B4BD02656
:100E30009B4680231B026F469A4698463606E3106F
:100E4000503B3B7000237B701033BB704346012046
:100E500073620021B36109F0C3F98023DB0173627F
:100E600001200021B36109F0BBF93B4B3D0018792B
:100E70004000C0B2FFF74EFDFFF7FCFC28780135BB
:100E8000FFF748FD4D45F7D18023DB01012000210C
:100E9000B36209F0A5F9534601200021B36209F0BD
:100EA0009FF908345846FFF76FFE302CC7D10FB0BA
:100EB0003CBC90469946A246AB46F0BD103691E741
:100EC00001AB18007268264999460BF01FFC337875
:100ED0000A2B00D042E743466C465B075B0F503B52
:100EE0002370002363701033A370D02580232D0658
:100EF0001B026B620120AB61002109F071F98023B4
:100F0000DB016B620120AB61002109F069F9124B32
:100F1000E51C18794000C0B2FFF7FCFCFFF7AAFC03
:100F200020780134FFF7F6FCAC42F7D143E75B468B
:100F30001B68002B00DA72E7012149426DE70023AC
:100F40009846034B9B4650E7783100204420002010
:100F500048200020201F02102C070020281F02100C
:100F6000181F02100023064A10B51360054A1360CB
:100F7000054B1A68054B1A60FFF7C0FE10BDC0464E
:100F800048200020442000202845022078310020FD
:100F9000074A10B51368013B002B00DC00231360E7
:100FA000044A1168994200DD1360FFF7A7FE10BDE7
:100FB0004820002044200020114B70B5114C1B68C4
:100FC00025681A78681C20600C2A17D00022197C2A
:100FD000103301320C29FAD1904201D1280025604A
:100FE000094A1368C31A052B02DD053803D41060C3
:100FF000FFF784FE70BD00231360F9E70022EBE7E2
:10100000783100204820002044200020F8B54746D1
:10101000CE4680B5154F3C6823780C2B18D0144A67
:10102000002591460022134E904604E0237C1034A4
:1010300001350C2B0CD03268AA42F7D10B2B0BD008
:101040002000E36810349847237801350C2BF2D147
:101050000CBC90469946F8BDA36842463B604B469F
:1010600032601A60FFF74AFEE0E7C04678310020A0
:101070004420002048200020F8B58022D024CE460D
:1010800047462406120180B5A26280229200A26225
:101090008022D200A26280225201A2628022154DDB
:1010A0005200A26280222F00134B92019946012622
:1010B000A26108370DE02B780022984601214046B6
:1010C00008F06AF93300424693400135A362AF420B
:1010D00008D04B461B68002BEDD12B780022984698
:1010E0000021ECE705480CF061FE0CBC90469946E7
:1010F000F8BDC0462438021070060020381F0210C8
:10110000F8B5D02580234746CE469B012D0680B5F5
:10111000AB6108239946484B01279846474CA144A8
:1011200043461B68002201212678002B00D10021B4
:10113000300008F031F93B00B3400134AB624C455C
:10114000EED1D02580268023FA202D06DB00760004
:1011500000216E6180006B61802709F041F8FA2060
:10116000BF000021AE618000AF6109F039F8802333
:10117000FA201B01AB6100218000984609F030F88D
:10118000FA200021800009F02BF801226B686968C1
:10119000DB091340890911405B005B1869686C68C2
:1011A000490911405B005B18240914405B001B19BE
:1011B0006C685B00E40814401B196C685B00A408B1
:1011C000DBB214401C196B6864005B081340E4B286
:1011D000E4186B68FA201A40434600216B618000D6
:1011E0006400A41808F0FCFFFA20002180006F6161
:1011F00008F0F6FFFA200021800008F0F1FFE4B2C9
:101200000A20AE610CF02AFC21000D480CF0CEFD46
:10121000012C08D0022C0AD00A480CF071FC0CBC3E
:1012200090469946F8BD08480CF06AFCF7E7074875
:101230000CF066FCF3E7C04670060020243802106C
:101240005C1F0210901F0210781F0210841F0210F2
:10125000F0B54F46D64646468448C0B50CF0A6FDCC
:10126000D02580232D069B01AB6108239946804B36
:10127000012798467F4CA14443461B680022012168
:101280002678002B00D10021300008F085F83B00C3
:10129000B3400134AB62A145EED1D0278023FA20C0
:1012A0003F06DB0000217B61800008F099FF80246D
:1012B0008023FA2064009B00BC610021BB61800098
:1012C00008F08EFF8023FA201B01BB610021800003
:1012D00008F086FFFA200021800008F081FF8023BB
:1012E000FA205B010021BB61800008F079FF002338
:1012F000FA20614E0021337080007C61984608F02E
:101300006FFFFA20BC610021800008F069FF4346AE
:101310005A4DEB3C2B805A4B98465A4B994616E057
:1013200080235B017B61012333706420002108F07E
:1013300057FF42462B88126801339BB22B80002A4C
:1013400002D0FF221A420DD0013C002C21D033786C
:10135000002BE5D0012BE8D180235B01BB6100238A
:101360003370E2E74B461B68002B6ED08023FA20D7
:10137000DB009A4600217B61800008F031FF534674
:10138000FA200021BB618000013C08F029FF002CFD
:10139000DDD13D4BD02699463C4B0527984601258B
:1013A000360674687368E4092C409B092B4064007E
:1013B000E418736864005B092B40E41873686400E8
:1013C0001B092B40E41873686400DB082B40E41809
:1013D000736864009B082B40E4B2E41873686400EF
:1013E0005B082B40E4B2E418736864002B40E418F7
:1013F0004046E4B20CF084FBFA2080000CF0E8FCDC
:10140000431CF9D021004846013F0CF0CFFC002FCF
:10141000C7D1D0248023FA2024061B016361002158
:10142000800008F0DDFE8023FA209B00636100212C
:10143000800008F0D5FEFA200021800008F0D0FEE0
:101440001CBC90469946A246F0BD8023FA20DB00E2
:101450009A46BB610021800008F0C2FE5346FA2084
:1014600000217B61800008F0BBFE6DE7A01F021029
:101470007006002024380210C0200020BE2000206A
:101480003407002070200020B01F0210C01F02107F
:10149000F8B5454657464E46DE468023E0B5D02592
:1014A0009B012D06AB61082399464A4B01279846BC
:1014B000494CA14443461B68002201212678002B99
:1014C00000D10021300007F067FF3B00B34001343A
:1014D000AB62A145EED1D0268023FA203606DB0090
:1014E0000021736180009846802408F079FE8023F3
:1014F000FA209B0064000021B4618000B361802762
:10150000994608F06DFEFA203F0100218000B76186
:1015100008F066FEFA2000218000802508F060FEB9
:10152000FA206D0100218000B56108F059FE00230A
:101530009A46FA205246294B00211A7080007461A5
:1015400008F04EFEFA2000218000B46108F048FE49
:101550005246234B00211A8080239B02B36121480D
:10156000746108F03DFE00211E48B46108F038FEA9
:101570004B46FA20B3614346002173618000B76196
:1015800008F02EFE0A239946174BAA469B46174B96
:10159000984653465D46002401277361B361726823
:1015A00008CD2100DA4040463A4001340CF0FEFB01
:1015B000082CF4D101235B429C46E1444B46002BAE
:1015C000E7D10A200CF04AFA3CBC90469946A24664
:1015D000AB46F8BD7006002024380210C020002061
:1015E000BE200020A086010004380210CC1F02108B
:1015F000C94BF0B5DE4657464E46454698461B68F1
:10160000E0B55A42534130225B4293438BB03233B0
:101610000200099301231A40019242081A400292E3
:1016200082081A400392C2081A40049202091A4022
:10163000059242091A400692820913400793C30992
:10164000089301239B468023D0241B019A46012640
:10165000009024068023FA201B0100216361800092
:1016600008F0BEFD8023FA209B006361002180000A
:1016700008F0B6FDFA200021800008F0B1FD4346D5
:101680001B68002B00D10DE180239B020021A348A1
:10169000636108F0A5FD80239B0163610223FA20AA
:1016A00066626362023363620433636208336362B7
:1016B0001033636220336362403363620021800031
:1016C00008F08EFD019B002B00D0E9E0A661029B93
:1016D000002B00D0E1E00233A361039B002B00D07C
:1016E000D8E00433A361049B002B00D0CFE0083383
:1016F000A361059B002B00D0C6E01033A361069BBD
:10170000002B00D0BDE02033A361079B002B00D04D
:10171000B4E04033A361089B002B00D0ABE08033E2
:10172000A36143461B68002B00D19EE000217B484B
:1017300008F056FD8023DB00A361FA205346002108
:10174000A361800008F04CFD5346636143461B686B
:10175000002B77D00021714808F042FD43461B68FA
:10176000002B78D18022D2006261802208216C4D4A
:1017700092018C46A2612A006244914601E04346F0
:101780001B68002201212F78002B00D10021380096
:1017900007F002FE3300BB400135A362A945EED13C
:1017A0008023FA20DB0000216361800008F018FD2F
:1017B00080278023FA205B00BF00A3610021800006
:1017C000A76108F00DFD5346FA20A36100218000B7
:1017D00008F006FDFA200021800008F001FD656890
:1017E0006368ED0935409B0933406D00ED1863686F
:1017F0006D005B093340ED1863686D001B093340D1
:10180000ED1863686D00DB083340ED1863686D0008
:101810009B083340EDB2ED1863686D005B08334000
:10182000EDB2ED1863686D003340ED18009BEDB22A
:10183000AB425CD05B46099A0133DBB2934537D0AB
:101840009B4607E7FA200021800008F0C9FC4346C8
:101850001B68002B86D080239B02A36100212F48A8
:1018600008F0BEFC43461B687CE7FA20002180009C
:1018700008F0B6FC5EE78023636152E740236361B2
:1018800049E72023636140E71023636137E70823BA
:1018900063612EE70423636125E7022363611CE78C
:1018A000666114E7FA200021800008F099FCF2E656
:1018B0005346FA2063610021800008F091FCFA2071
:1018C00000218000676108F08BFCFA200021800075
:1018D00008F086FC2A00009912480CF067FA0020F4
:1018E0000BB03CBC90469946A246AB46F0BD534671
:1018F000FA2063610021800008F072FCFA200021C8
:101900008000676108F06CFCFA200021800008F07C
:1019100067FC0120E4E7C04670060020B80B000019
:1019200024380210E01F0210F0B5D6464F46464656
:10193000554BC0B51C68002C00D099E053480CF002
:1019400035FAD0268023FA205B013606B3610021E8
:101950008000802708F044FCFA204D4D7F000021D4
:101960002C708000776108F03BFCFA20B761002101
:10197000800008F035FCFA20464E002180003480BB
:1019800008F02EFC444834800CF010FA434B444FCE
:10199000984618E0D02380221B0652015A61012389
:1019A0002B706420002108F01BFC33883A68013357
:1019B0009BB23380002A02D0FF221A4218D0394B42
:1019C00001349C4232D0FF20FFF712FE002857D08E
:1019D000E3B2FF2B31D02B78002BDBD0012BE0D1F1
:1019E000D02380221B0652019A6100232B70D8E776
:1019F00043461B68002B24D0D0231B069946802326
:101A0000DB009A46FA204B46524600215A6180007C
:101A100008F0E6FB4B465246FA209A61002180000E
:101A200008F0DEFB1F4B01349C42CCD10A200CF0A5
:101A300015F81D480CF0BAF91DE02E200CF00EF838
:101A4000C9E7D0231B0699468023DB009A46FA207B
:101A50004B46524600219A61800008F0C1FB4B467C
:101A60005246FA2000215A61800008F0B9FBA6E72F
:101A70000E480CF09BF91CBC90469946A246F0BD5E
:101A80000B480CF093F9F6E770060020FC1F0210DB
:101A9000C0200020BE200020142002107020002052
:101AA00034070020010200003C20021050200210E8
:101AB00024200210F8B54E4657464546DE468023A0
:101AC000E0B5D0269B013606B361082398468A4BC1
:101AD00001279946894CA0444B461B6800220121EE
:101AE0002578002B00D10021280007F055FC3B0091
:101AF000AB400134B3624445EED1D0248025FA20B6
:101B00002406ED0000218000656108F069FB802358
:101B1000FA205B00A361DB180021A361800008F0BC
:101B20005FFB8023FA201B01A3610021800008F0E5
:101B300057FBFA200021800008F052FB4B461B683F
:101B4000002B03D001226E4BA5611A60D0248023A4
:101B5000FA2024065B010021A3618000802608F0A2
:101B60003FFB0025FA20674B76001D70002166615F
:101B70008000984608F034FBFA200021A66180001E
:101B800008F02EFB604E614835800BF0B9FF604BCA
:101B9000604F9A465A4B9B461AE080235B01636173
:101BA0004246012313706420002108F019FB5246BD
:101BB0003388126801339BB23380002A02D0FF229F
:101BC0001A4241D03800013518F062F9A84255D3C5
:101BD000012163686268DB090B4092090A405B00DF
:101BE0009B1862685B0052090A409B1862685B00A0
:101BF00012090A409B1862685B00D2080A409B18D1
:101C000062685B0092080A40DBB29B1862685B0066
:101C100052080A40DBB29B1862685B0011405B18F7
:101C2000785DDBB2984200D12E200BF017FF4346BF
:101C30001B78002BB1D0012BB5D180235B01A361B0
:101C4000424600231370AEE75B461B68002B41D071
:101C50008023FA20DB0000216361800008F0C0FAD5
:101C60008023FA20DB0080000021A36108F0B8FA8D
:101C70003800013518F00CF9A842A9D24B461B6870
:101C8000002B07D0D02380221B06D2005A610022ED
:101C90001B4B1A60D0248023FA2024061B016361A9
:101CA0000021800008F09CFA8023FA209B006361E9
:101CB0000021800008F094FAFA200021800008F04A
:101CC0008FFA15480BF01CFF3CBC90469946A24683
:101CD000AB46F8BD8023FA20DB00A3610021800021
:101CE00008F07EFA8023FA20DB0000216361800087
:101CF00008F076FA66E7C046700600202438021025
:101D000070200020C0200020BE200020882002106B
:101D100034070020800800209C200210F0B54546C2
:101D200057464E46DE468023E0B5D0259B012D0662
:101D3000AB6108239946073B9846A24CA24F83B05B
:101D4000A1443B68002201212678002B00D100210C
:101D5000300007F021FB4346B3400134AB624C45F1
:101D6000EFD1D0248023FA202406DB000021636118
:101D7000800008F035FA80258023FA206D009B0052
:101D8000A5610021A361800008F02AFA8023FA20CF
:101D90001B01A3610021800008F022FAFA20002133
:101DA000800008F01DFA8023FA205B010021A36166
:101DB000800008F015FA0026FA20844B00211E70DE
:101DC00080006561984608F00BFAFA200021A561B1
:101DD000800008F005FA7E4F7E483E800BF090FEB2
:101DE000012263686168DB091340890911405B00C7
:101DF0005B1861685B00490911405B1861685B0012
:101E0000090911405B1861685B00C90811405B1843
:101E100061685B0089081140DBB25B1861685B0098
:101E200049081140DBB25B1861685B000A409B18EF
:101E3000DBB2FF3B5A425341DBB29B460193664BF8
:101E400001369A46654BFF3D994647E080235B018A
:101E5000636143461D706420002108F0C1F95246B9
:101E60003B88126801339BB23B80002A03D0FF22DB
:101E70001A4200D17BE063686268DB092B4092095B
:101E80002A405B009B1862685B0052092A409B183D
:101E900062685B0012092A409B1862685B00D208E6
:101EA0002A409B1862685B0092082A40DBB29B18AC
:101EB00062685B0052082A40DBB29B1862685B00D4
:101EC0002A409B18DBB2FF2B15D0B3054BD0002363
:101ED0009B460193424B01369E421AD043461B78E3
:101EE000002BB3D0012BB6D180235B01A361424606
:101EF00000231370AFE7B305ECD15B46002B5CD039
:101F000038480BF053FF01239B46354B01369E4268
:101F1000E4D135480BF04AFF019B002B4FD13348E9
:101F20000BF044FF0A200BF099FDD0248023FA2007
:101F300024061B0163610021800008F051F9802311
:101F4000FA209B0063610021800008F049F9FA2023
:101F50000021800008F044F903B03CBC904699464B
:101F6000A246AB46F0BD002321480193C9E74B468A
:101F70001B68002B10D08023FA20DB006361002156
:101F8000800008F02DF98023FA20DB000021A361F6
:101F9000800008F025F96EE78023FA20DB00A361BA
:101FA0000021800008F01CF98023FA20DB000021CA
:101FB0006361800008F014F95DE70D48A1E70D4862
:101FC000AEE7C0462438021070060020C020002072
:101FD000BE200020AC20021034070020702000201A
:101FE000018000002C2C0210E0200210A82002101A
:101FF000C82A0210A4200210F8B5D0248023DE469F
:1020000057464E46454624069B01E0B563610125CF
:10201000022340262027FA2065629B466362023332
:1020200063629A4604336362994608336362984652
:1020300070336762002166628000636208F0D0F846
:102040008022802312019B006562A261A36180232C
:10205000DB00A36180235B00A361802359465B0101
:10206000A361A561A1615146A1614946A1614146B3
:102070008023A161A34DA761A661A34E0B2231006D
:102080002800A3610BF092FE80221201626164209D
:102090000BF09EFE431CFAD09C4C310020000BF04C
:1020A00085FED02780239A4E1B013F06BB61092283
:1020B000310028000BF07AFE80239B007B616420B6
:1020C0000BF086FE431CFAD0310020000BF06EFEB0
:1020D000D02780238F4E9B003F06BB610822310032
:1020E00028000BF063FE80235B007B6164200BF013
:1020F0006FFE431CFAD0310020000BF057FED027B2
:102100008023854E5B003F06BB610A223100280018
:102110000BF04CFE8023DB007B6164200BF058FE4B
:10212000431CFAD0310020000BF040FED027802362
:102130007A4EDB003F06BB610C22310028000BF019
:1021400035FE80235B017B6164200BF041FE431C64
:10215000FAD0310020000BF029FED0278023704EEA
:102160005B013F06BB610022310028000BF01EFE20
:1021700001237B6164200BF02BFE431CFAD031005D
:102180002000D0270BF012FE0123664E3F06BB61F4
:102190000122310028000BF009FE02237B6164203C
:1021A0000BF016FE431CFAD031002000D0270BF0B4
:1021B000FDFD02235C4E3F06BB6102223100280078
:1021C0000BF0F4FD04237B6164200BF001FE431C43
:1021D000FAD031002000D0270BF0E8FD0423534E45
:1021E0003F06BB610322310028000BF0DFFD08230E
:1021F0007B6164200BF0ECFD431CFAD03100200021
:10220000D0270BF0D3FD0823494E3F06BB610422C3
:10221000310028000BF0CAFD10237B6164200BF015
:10222000D7FD431CFAD031002000D0270BF0BEFDB3
:102230001023404E3F06BB610522310028000BF001
:10224000B5FD20237B6164200BF0C2FD431CFAD056
:1022500031002000D0270BF0A9FD2023364E3F0689
:10226000BB610622310028000BF0A0FD40237B61FA
:1022700064200BF0ADFD431CFAD031002000D027C4
:102280000BF094FD40232D4E3F06BB610722310029
:1022900028000BF08BFD80237B6164200BF098FD00
:1022A000431CFAD031002000D0250BF07FFD8022A6
:1022B0002D06234CAA6180222700224B92019946C9
:1022C0000126AA6108370DE02378002298460121F3
:1022D000404607F061F83300424693400134AB6258
:1022E000BC4208D04B461B68002BEDD1237800225E
:1022F00098460021ECE73CBC90469946A246AB4686
:10230000F8BDC046F8200210F42002100C21021083
:102310001C21021020210210242102102C21021065
:1023200034210210382102103C21021040210210F9
:1023300044210210482102104C21021050210210A9
:102340002438021070060020F0B5454657464E4628
:10235000DE468023E0B5D0259B012D06AB61082326
:102360009946073B9846D94CD94F85B0A1443B6864
:10237000002201212678002B00D10021300007F037
:102380000BF84346B3400134AB62A145EFD1D024F2
:102390008023FA202406DB0063610021800007F01F
:1023A0001FFF80258023FA206D009B00A56100217E
:1023B000A361800007F014FF8023FA201B01A361B2
:1023C0000021800007F00CFFFA200021800007F0B8
:1023D00007FF8023FA205B01A3610021800007F042
:1023E000FFFE0026FA20BB4B00211E7080006561B5
:1023F000984607F0F5FEFA2000218000A56107F05D
:10240000EFFEB54F3E80FEF73FFBB02302AA93805C
:10241000A03B937180231B0263620120A361002112
:1024200007F0DEFE8023DB0163620120A36100214F
:1024300007F0D6FEA94B03AC18794000C0B2FEF7F6
:1024400069FAFEF717FA2078FEF764FA02AB013456
:1024500007339C42F5D1D02480232406DB010120E0
:102460000021A36207F0BCFE80231B02A3620120AF
:10247000002107F0B5FE9A499848FEF7FBFB0122C0
:1024800063686168DB091340890911405B005B18D0
:1024900061685B00490911405B1861685B000909CC
:1024A00011405B1861685B00C90811405B186168E6
:1024B0005B0089081140DBB25B1861685B0049086A
:1024C0001140DBB25B1861685B000A409B18DBB20D
:1024D000FF3B5A425341DBB29A460193814B01269E
:1024E0009946814B01259B4648E080235B0163614F
:1024F00043461D706420002107F072FE4A463B8867
:10250000126801339BB23B80002A03D0FF221A429B
:1025100000D1B1E063686268DB092B4092092A4070
:102520005B009B1862685B0052092A409B18626836
:102530005B0012092A409B1862685B00D2082A409F
:102540009B1862685B0092082A40DBB29B186268A5
:102550005B0052082A40DBB29B1862685B002A408D
:102560009B18DBB2FF2B16D0B30500D180E000230F
:102570009A4601935D4B01369E421BD043461B7821
:10258000002BB2D0012BB5D180235B01A361424661
:1025900000231370AEE7B305ECD15346002B00D1F6
:1025A00090E053480BF002FC01239A464F4B013652
:1025B0009E42E3D1B12302AA9380A13B9371D02420
:1025C000802324061B0263620120A361002107F01F
:1025D00007FE8023DB0163620120A361002107F075
:1025E000FFFD3E4B03AC18794000C0B2FEF792F9F4
:1025F000FEF740F92078FEF78DF902AB013407337E
:102600009C42F5D1D02480232406DB010120002147
:10261000A36207F0E5FD80231B02A36201200021D5
:1026200007F0DEFD019B002B4ED1324A32492B4888
:10263000FEF720FBD0248023FA2024061B016361CF
:102640000021800007F0CCFD8023FA209B0063610D
:102650000021800007F0C4FDFA200021800007F06F
:10266000BFFD05B03CBC90469946A246AB46F0BDC6
:1026700000232248019395E75B461B68002B10D08E
:102680008023FA20DB0063610021800007F0A8FDB1
:102690008023FA20DB000021A361800007F0A0FD69
:1026A00038E78023FA20DB00A3610021800007F0D7
:1026B00097FD8023FA20DB0000216361800007F092
:1026C0008FFD27E70D486DE70D4AAFE7243802106C
:1026D00070060020C0200020BE2000202C07002013
:1026E00068210210340700207020002001800000C3
:1026F0002C2C02105C210210701E0210C82A02103D
:1027000054210210F0B5DE46454657464E4680231A
:10271000E0B5D025FA205D4C2D061B01A544002113
:102720006B61800007F05CFD8023FA209B006B61E9
:102730000021800007F054FDFA200021800007F0FE
:102740004FFD80239B01AB6108239846504C012725
:10275000504EA0440DE023780022994601214846BE
:1027600006F01AFE3B004A4693400134AB624445F2
:1027700007D03368002BEED1237800229946002140
:10278000EDE7D0248023FA2024065B010021A36119
:102790008000802507F024FD0026FA203E4B6D00C6
:1027A0001E7000218000656107F01AFDFA200021EB
:1027B0008000A56107F014FD384BFA201E808023AD
:1027C000DB0000216361800007F00AFD8023FA200E
:1027D0009B000021A5618000A36107F001FD80231B
:1027E000FA201B01A3610021800007F0F9FCFA2008
:1027F0000021800007F0F4FC29480BF081F92948FA
:102800000BF07EF9284B0893002309930293274B82
:102810009B46002200230C920D930E920F93109270
:102820001193129213931492159316921793189270
:1028300019931A921B93F9220023002192001DA8DC
:102840001C930AF0FBFF5021194B099C0AAA52184D
:102850001380184922000AA809F058FF0AA80BF0B3
:10286000A5FA0821A3B21B090AAA9B0052180793D4
:10287000D358D0260193089B01229A46002357463D
:10288000984691469A46360648E0C046A4FBFFFFAC
:102890002438021070060020C0200020BE20002036
:1028A00074210210C02102102841022034070020A8
:1028B0002020000034220210482152460AAB5B1847
:1028C0009C5453460133DBB29A46082B01D10233A4
:1028D0009A46D84B1B78002B00D01FE180234A4634
:1028E0005B017361D34B1A706420002107F078FC00
:1028F000D14BD14A1B8801339BB213805A461268D0
:10290000002A03D0FF221A4200D121E143460133BD
:10291000DBB298460437102B00D133E1082342463E
:102920009A4302D120200BF099F84A4675687368E3
:10293000ED0915409B0913406D00ED1873686D009B
:102940005B091340ED1873686D001B091340EDB26D
:10295000ED1873686D00DB081340EDB2ED18736875
:102960006D009B081340EDB2ED1873686D005B08B5
:102970001340EDB2ED1873686D001340ED18EBB223
:1029800064200021009307F02BFC494674687368AB
:10299000E4090C409B090B406400E4187368640070
:1029A0005B090B40E418736864001B090B40E4B238
:1029B000E41873686400DB080B40E4B2E418736841
:1029C00064009B080B40E4B2E418736864005B0881
:1029D0000B4064200021E4B2E418756807F000FCA5
:1029E00073687168640003917168E4B28C46716821
:1029F00070680491716872680592726806924A461E
:102A000015406419009AE4B20025A24230D14A462A
:102A1000DB091340039A5B0094094A46144062465E
:102A20001B1954094A461440049A5B001B191409E7
:102A30004A465B001440DBB21B195B00DDB2059B0C
:102A4000C0088908104011405A084B462D186D00E7
:102A5000EDB26D186D001A40EDB2AD184A46069BF6
:102A60006D001340ED18009BEDB2ED1A6B425D4115
:102A70004A4674687368E40914409B091340640073
:102A8000E418736864005B091340E4187368640019
:102A90001B091340E4B2E41873686400DB081340B8
:102AA000E4B2E418736864009B081340E4B2E418CD
:102AB000736864005B081340E4B2E4187368640050
:102AC0001340E418029BE4B29C46A444634602937C
:102AD000019B08209C46A444634607990AAA121841
:102AE00001935350002D2AD03B68002B20D153482E
:102AF0000BF05CF9220052490AA809F007FE0AA867
:102B00000BF054F92300203B5E2B00D8D4E648207C
:102B10002E2351460AAA12185354D2E6012B00D094
:102B2000E2E6802300225B01B361424B1A70DBE6D0
:102B300044480BF03BF93B68002BDBD1D7E7424818
:102B40000BF034F94B463F483B600BF02FF9D1E7CF
:102B500080243E4BE4001B68002B5BD0FA20002150
:102B60008000746107F03CFBFA200021B461800012
:102B700007F036FB43460133DBB298460437102B8F
:102B800000D0CBE62D480BF011F920200AF066FFAB
:102B9000019A2F481CA90BF009F9089B099A4033A8
:102BA00008938023103209925B009A4200D030E6ED
:102BB0000A200AF053FF274C029B2268934236D02A
:102BC000254B029D25482A0029000BF0EFF80A202A
:102BD0000AF044FF25608023D024FA2024061B013C
:102BE00063610021800007F0FBFA8023FA209B003C
:102BF00063610021800007F0F3FAFA2000218000D1
:102C000007F0EEFA164B9D443CBC90469946A2460E
:102C1000AB46F0BDFA200021B461800007F0E0FA75
:102C2000FA2000217461800007F0DAFA6EE60D4B9D
:102C3000C7E7C046C0200020BE2000201C22021092
:102C400020220210142202100C22021070200020F8
:102C50002822021020200020A82002103C2202106E
:102C60005C040000A420021010B503480BF09EF88D
:102C7000FFF748FD10BDC04660220210F0B5DE46E9
:102C8000454657464E468023E0B5D025FA20684C8D
:102C90002D061B01A54400216B61800007F0A0FAFE
:102CA0008023FA209B006B610021800007F098FAD6
:102CB000FA200021800007F093FA80239B01AB618A
:102CC000082398465B4C01275B4EA0440DE0237817
:102CD000002299460121484606F05EFB3B004A4629
:102CE00093400134AB62A04507D03368002BEED18E
:102CF0002378002299460021EDE7D0258023FA2091
:102D00002D065B010021AB618000802407F068FA8A
:102D10000026FA20494B64001E70002180006C617F
:102D200007F05EFAFA2000218000AC6107F058FA43
:102D3000434BFA201E808026F600002180006E6141
:102D40009B4607F04DFA8023FA209B000021AC61DE
:102D50008000AB6107F044FA8023FA201B01AB61CD
:102D60000021800007F03CFAFA200021800007F0E3
:102D700037FA34480AF0C4FE33480AF0C1FE334B38
:102D800098461B68002B00D13BE2314B1B68002B9F
:102D900000D129E2FA20002180006E6107F020FABC
:102DA000FA200021AE61800007F01AFA294B0A933D
:102DB00000230B930493002200230E920F93109292
:102DC00011931292139314921593169217931892CB
:102DD00019931A921B931C921D93F9220023002130
:102DE00092001FA81E930AF029FD50211A4B0B9C3C
:102DF0000CAA52181380621C1849FF320CA809F063
:102E000085FC0CA80AF0D2FF0821A3B21B090CAA6A
:102E10009B0052180993D358002603930A9B01275D
:102E2000994600230193D0231B069A4648E0C046EA
:102E30009CFBFFFF2438021070060020C0200020F9
:102E4000BE20002074210210C0210210340700208F
:102E5000702000202841022020200000342202108F
:102E600048220CAB9B189C550136F6B2082E00D1B7
:102E70000236E54B1B78002B00D02CE18023524614
:102E80005B015361E04B1F706420002107F0A8F93B
:102E90005B465A461B8801339BB213804246126838
:102EA000002A03D0FF221A4200D130E104229446C6
:102EB000019BE1440133DBB20193102B00D14AE1C5
:102EC0000823019A9A4302D120200AF0C7FD5346F5
:102ED0005D685B68ED093D409B093B406D00ED1866
:102EE00053465B686D005B093B40ED1853465B68D9
:102EF0006D001B093B40EDB2ED1853465B686D0059
:102F0000DB083B40EDB2ED1853465B686D009B0853
:102F10003B40EDB2ED1853465B686D005B083B40EB
:102F2000EDB2ED1853465B686D003B40ED18EBB217
:102F300064200021029307F053F951464C684B6816
:102F4000E4093C409B093B406400E4184B68640082
:102F50005B093B40E4184B6864001B093B40E4B24A
:102F6000E4184B686400DB083B40E4B2E4184B68AB
:102F700064009B083B40E4B2E4184B6864005B08C3
:102F80004D683B4064200021E4B2E41807F028F9C2
:102F900051464B684968524605915146496864005C
:102FA0008C46514649683D400691514648684968FB
:102FB0005268E4B207925246526864190892029A23
:102FC000E4B20025A2422AD1059ADB09940962469F
:102FD0003B403C405B001B1954093C40069A5B0097
:102FE0001B195B001409DBB23C401B195B00C008D5
:102FF000DDB238402D186D008908079BEDB23940CD
:103000006D185A086D00089BEDB23A40AD183B4070
:103010006D00ED18029BEDB2ED1A6B425D41534617
:103020005C685B68E4093C409B093B406400E41831
:1030300053465B6864005B093B40E41853465B6899
:1030400064001B093B40E4B2E41853465B6864002B
:10305000DB083B40E4B2E41853465B6864009B081D
:103060003B40E4B2E41853465B6864005B083B40B5
:10307000E4B2E41853465B6864003B40E418049BE8
:10308000E4B29C46A44463460493039B08209C46F8
:10309000A444634609990CAA121803935350002DB7
:1030A0002CD04B461B68002B20D158480AF07EFEDE
:1030B000220057490CA809F029FB0CA80AF076FE5B
:1030C0002300203B5E2B00D8CAE648212E230CAA01
:1030D00052189355C8E6012B00D0D5E680235246FE
:1030E0005B0193610022484B1A70CDE649480AF013
:1030F0005DFE4B461B68002BDAD1D6E746480AF046
:1031000055FE4B4643481F600AF050FED0E780242E
:10311000424BE4001B68002B0ED05346FA205C6142
:103120000021800007F05CF85346FA2000219C61E2
:10313000800007F055F8B9E65346FA209C6100215B
:10314000800007F04DF85346FA2000215C618000B2
:1031500007F046F8AAE62D480AF028FE20200AF0DB
:103160007DFC039A2E481EA90AF020FE0A9B0B9AAA
:1031700040330A93802310320B925B009A4200D0B6
:1031800019E60A200AF06AFC264C049B2268934246
:1031900000D197E0244B049D24482A0029000AF01E
:1031A00005FE0A200AF05AFC25608023D024FA206C
:1031B00024061B0163610021800007F011F88023C1
:1031C000FA209B0063610021800007F009F8FA20D3
:1031D0000021800007F004F8154B9D443CBC90464C
:1031E0009946A246AB46F0BDFA200021AE618000B0
:1031F00006F0F6FFFA2000216E61800006F0F0FF75
:10320000D4E5064E32E0C046C02000201C22021049
:1032100020220210142202100C2202107020002022
:103220002822021020200020A82002103C22021098
:103230006404000080235B016B610123224A137048
:103240006420002106F0CCFF5B465A461B88013300
:103250009BB2138042461268002A02D0FF221A4213
:1032600011D0013CA4B2002C00D19FE5164B1B7875
:10327000002BDFD0012BE3D180235B01AB61002366
:10328000114A1370DCE780273368FF00002B0CD055
:10329000FA2000216F61800006F0A2FFFA200021D1
:1032A000AF61800006F09CFFDBE7FA200021AF61F0
:1032B000800006F095FFFA2000216F61800006F083
:1032C0008FFFCEE7014B66E7C0200020A42002104C
:1032D00010B503480AF06AFDFFF7D0FC10BDC046E8
:1032E00070220210F0B5DE46454657464E46802312
:1032F000E0B5D025FA209D4C2D061B01A5440021E8
:103300006B61800006F06CFF8023FA209B006B61EC
:103310000021800006F064FFFA200021800006F002
:103320005FFF80239B01AB6108239846904C0127E7
:10333000904EA0440DE02378002299460121484692
:1033400006F02AF83B004A4693400134AB624445FC
:1033500007D03368002BEED1237800229946002154
:10336000EDE7D0248023FA2024065B010021A3612D
:103370008000802506F034FF0026FA207E4B6D0089
:103380001E7000218000656106F02AFFFA200021EE
:103390008000A56106F024FF784BFA201E809B4632
:1033A0008023DB0000216361800006F019FF802389
:1033B000FA209B000021A5618000A36106F010FFA8
:1033C0008023FA201B01A3610021800006F008FF82
:1033D000FA200021800006F003FF69480AF090FB04
:1033E00068480AF08DFB02239846674B674E994662
:1033F00018E0D0248025654B24061B68ED00002BC7
:1034000060D0FA2000218000656106F0E9FEFA2014
:103410000021A561800006F0E3FE4346012B60D049
:10342000012398464B461B68002BE2D18024D0250F
:1034300064002D061AE080235B016B6101234E4A74
:1034400013706420002106F0CBFE5B465A461B88B1
:1034500001339BB213804A461268002A02D0FF2231
:103460001A4210D0013CA4B2002CD6D0424B1B789B
:10347000002BE0D0012BE4D180235B01AB61002362
:103480003D4A1370DDE780273368FF00002B0CD026
:10349000FA2000216F61800006F0A2FEFA200021D0
:1034A000AF61800006F09CFEDCE7FA200021AF61EE
:1034B000800006F095FEFA2000216F61800006F082
:1034C0008FFECFE7FA2000218000A56106F088FE7C
:1034D000FA2000216561800006F082FE4346012B40
:1034E0009ED12B4B0A9300230B93049300220023BD
:1034F0000E920F93109211931292139314921593AC
:1035000016921793189219931A921B931C921D935B
:10351000F9220023002192001FA81E930AF08EF9C1
:1035200050210CAA0B9C52181A4BB131FF318C461A
:103530001380230063441A0017490CA809F0E6F829
:103540000CA80AF033FC0821A3B21B090CAA9B00AB
:1035500052180993D358002603930A9B01279846D3
:1035600000230193D0231B069A4647E09CFBFFFFF4
:103570002438021070060020C0200020BE20002049
:1035800074210210C0210210340700207020002096
:1035900028410220202000003422021048220CABD7
:1035A0009B189C550136F6B2082E00D10236DE4B30
:1035B0001B78002B00D02CE1802352465B01536125
:1035C000D94B1F706420002106F00AFE5B465A4664
:1035D0001B8801339BB213804A461268002A03D02D
:1035E000FF221A4200D130E104229446019BE044BC
:1035F0000133DBB20193102B00D14AE10823019A79
:103600009A4302D120200AF029FA53465D685B688C
:10361000ED093D409B093B406D00ED1853465B684A
:103620006D005B093B40ED1853465B686D001B095C
:103630003B40EDB2ED1853465B686D00DB083B4044
:10364000EDB2ED1853465B686D009B083B40EDB250
:10365000ED1853465B686D005B083B40EDB2ED181A
:1036600053465B686D003B40ED18EBB264200021CF
:10367000029306F0B5FD51464C684B68E4093C40A6
:103680009B093B406400E4184B6864005B093B40C5
:10369000E4184B6864001B093B40E4B2E4184B6833
:1036A0006400DB083B40E4B2E4184B6864009B080C
:1036B0003B40E4B2E4184B6864005B084D683B4053
:1036C00064200021E4B2E41806F08AFD51464B68FC
:1036D0004968524605915146496864008C465146F6
:1036E00049683D4006915146486849685268E4B2CD
:1036F00007925246526864190892029AE4B2002571
:10370000A2422AD1059ADB09940962463B403C401B
:103710005B001B1954093C40069A5B001B195B00B7
:103720001409DBB23C401B195B00C008DDB2384015
:103730002D186D008908079BEDB239406D185A08A5
:103740006D00089BEDB23A40AD183B406D00ED189E
:10375000029BEDB2ED1A6B425D4153465C685B68BB
:10376000E4093C409B093B406400E41853465B6815
:1037700064005B093B40E41853465B6864001B0926
:103780003B40E4B2E41853465B686400DB083B400E
:10379000E4B2E41853465B6864009B083B40E4B223
:1037A000E41853465B6864005B083B40E4B2E418ED
:1037B00053465B6864003B40E418049BE4B29C46BB
:1037C000A44463460493039B08209C46A444634698
:1037D00009990CAA121803935350002D2CD043467C
:1037E0001B68002B20D151480AF0E0FA2200504912
:1037F0000CA808F08BFF0CA80AF0D8FA2300203B95
:103800005E2B00D8CAE648212E230CAA52189355E5
:10381000C8E6012B00D0D5E6802352465B019361B8
:103820000022414B1A70CDE642480AF0BFFA4346E7
:103830001B68002BDAD1D6E73F480AF0B7FA4346B7
:103840003C481F600AF0B2FAD0E780243B4BE4000A
:103850001B68002B0ED05346FA205C6100218000CB
:1038600006F0BEFC5346FA2000219C61800006F061
:10387000B7FCB9E65346FA209C610021800006F0AF
:10388000AFFC5346FA2000215C61800006F0A8FCE2
:10389000AAE626480AF08AFA20200AF0DFF8039AFE
:1038A00027481EA90AF082FA0A9B0B9A40330A9312
:1038B000802310320B925B009A4200D016E60A2059
:1038C0000AF0CCF81F4C049B2268934229D01E4B6F
:1038D000049D1E482A0029000AF068FA0A200AF00E
:1038E000BDF825608023D024FA2024061B016361E3
:1038F0000021800006F074FC8023FA209B006361A5
:103900000021800006F06CFCFA200021800006F007
:1039100067FC0F4B9D443CBC90469946A246AB4683
:10392000F0BD0C4BD4E7C046C02000201C22021082
:1039300020220210142202100C22021070200020FB
:103940002822021020200020A82002103C22021071
:1039500064040000A420021010B503480AF026FAFF
:10396000FFF7C0FC10BDC04680220210F0B5DE4655
:10397000454657464E468023E0B5D025FA209F4C59
:103980002D061B01A54400216B61800006F028FC78
:103990008023FA209B006B610021800006F020FC50
:1039A000FA200021800006F01BFC80239B01AB6104
:1039B00008239846924C0127924EA0440DE02378AC
:1039C000002299460121484605F0E6FC3B004A46A4
:1039D00093400134AB62444507D03368002BEED1ED
:1039E0002378002299460021EDE7D0248023FA2095
:1039F00024065B010021A3618000802506F0F0FB16
:103A00000026FA20804B6D001E7000218000656149
:103A100006F0E6FBFA2000218000A56106F0E0FB3D
:103A20007A4BFA201E809B468023DB0000216361D5
:103A3000800006F0D5FB8023FA209B000021A561C1
:103A40008000A36106F0CCFB8023FA201B01A36158
:103A50000021800006F0C4FBFA200021800006F05F
:103A6000BFFB6B480AF04CF86A480AF049F8032398
:103A70009846694B694E994619E0D0248025674BDA
:103A800024061B68ED00002B61D0FA200021800085
:103A9000656106F0A5FBFA200021A561800006F013
:103AA0009FFB4746013FFBB29846002B61D04B4637
:103AB0001B68002BE1D18024D02564002D061AE07C
:103AC00080235B016B6101234F4A13706420002146
:103AD00006F086FB5B465A461B8801339BB2138077
:103AE0004A461268002A02D0FF221A4210D0013C36
:103AF000A4B2002CD5D0444B1B78002BE0D0012B76
:103B0000E4D180235B01AB6100233F4A1370DDE702
:103B100080273368FF00002B0CD0FA2000216F6152
:103B2000800006F05DFBFA200021AF61800006F006
:103B300057FBDCE7FA200021AF61800006F050FB64
:103B4000FA2000216F61800006F04AFBCFE7FA20DF
:103B500000218000A56106F043FB4746FA200021C2
:103B600065618000013F06F03BFBFBB29846002BED
:103B70009DD12B4B0A9300230B9304930022002327
:103B80000E920F9310921193129213931492159315
:103B900016921793189219931A921B931C921D93C5
:103BA000F9220023002192001FA81E9309F046FE6F
:103BB00050210CAA5218C0210B9C1A4B89008C462C
:103BC0001380230063441A0017490CA808F09EFDD7
:103BD0000CA80AF0EBF80821A3B21B090CAA9B0061
:103BE00052180993D358002603930A9B012798463D
:103BF00000230193D0231B069A4647E09CFBFFFF5E
:103C00002438021070060020C0200020BE200020B2
:103C100074210210C02102103407002070200020FF
:103C200028410220202000003422021048220CAB40
:103C30009B189C550136F6B2082E00D10236DE4B99
:103C40001B78002B00D02CE1802352465B0153618E
:103C5000D94B1F706420002106F0C2FA5B465A4619
:103C60001B8801339BB213804A461268002A03D096
:103C7000FF221A4200D130E104229446019BE04425
:103C80000133DBB20193102B00D14AE10823019AE2
:103C90009A4302D1202009F0E1FE53465D685B683B
:103CA000ED093D409B093B406D00ED1853465B68B4
:103CB0006D005B093B40ED1853465B686D001B09C6
:103CC0003B40EDB2ED1853465B686D00DB083B40AE
:103CD000EDB2ED1853465B686D009B083B40EDB2BA
:103CE000ED1853465B686D005B083B40EDB2ED1884
:103CF00053465B686D003B40ED18EBB26420002139
:103D0000029306F06DFA51464C684B68E4093C405A
:103D10009B093B406400E4184B6864005B093B402E
:103D2000E4184B6864001B093B40E4B2E4184B689C
:103D30006400DB083B40E4B2E4184B6864009B0875
:103D40003B40E4B2E4184B6864005B084D683B40BC
:103D500064200021E4B2E41806F042FA51464B68B0
:103D60004968524605915146496864008C4651465F
:103D700049683D4006915146486849685268E4B236
:103D800007925246526864190892029AE4B20025DA
:103D9000A2422AD1059ADB09940962463B403C4085
:103DA0005B001B1954093C40069A5B001B195B0021
:103DB0001409DBB23C401B195B00C008DDB238407F
:103DC0002D186D008908079BEDB239406D185A080F
:103DD0006D00089BEDB23A40AD183B406D00ED1808
:103DE000029BEDB2ED1A6B425D4153465C685B6825
:103DF000E4093C409B093B406400E41853465B687F
:103E000064005B093B40E41853465B6864001B098F
:103E10003B40E4B2E41853465B686400DB083B4077
:103E2000E4B2E41853465B6864009B083B40E4B28C
:103E3000E41853465B6864005B083B40E4B2E41856
:103E400053465B6864003B40E418049BE4B29C4624
:103E5000A44463460493039B08209C46A444634601
:103E600009990CAA121803935350002D2CD04346E5
:103E70001B68002B20D1514809F098FF22005049BF
:103E80000CA808F043FC0CA809F090FF2300203B8D
:103E90005E2B00D8CAE648212E230CAA521893554F
:103EA000C8E6012B00D0D5E6802352465B01936122
:103EB0000022414B1A70CDE6424809F077FF434695
:103EC0001B68002BDAD1D6E73F4809F06FFF434665
:103ED0003C481F6009F06AFFD0E780243B4BE400B8
:103EE0001B68002B0ED05346FA205C610021800035
:103EF00006F076F95346FA2000219C61800006F016
:103F00006FF9B9E65346FA209C610021800006F063
:103F100067F95346FA2000215C61800006F060F9E1
:103F2000AAE6264809F042FF202009F097FD039AEF
:103F300027481EA909F03AFF0A9B0B9A40330A93BF
:103F4000802310320B925B009A4200D016E60A20C2
:103F500009F084FD1F4C049B2268934229D01E4B1C
:103F6000049D1E482A00290009F020FF0A2009F0BC
:103F700075FD25608023D024FA2024061B0163618F
:103F80000021800006F02CF98023FA209B00636159
:103F90000021800006F024F9FA200021800006F0BC
:103FA0001FF90F4B9D443CBC90469946A246AB4638
:103FB000F0BD0C4BD4E7C046C02000201C220210EC
:103FC00020220210142202100C2202107020002065
:103FD0002822021020200020A82002103C220210DB
:103FE00064040000A420021010B5034809F0DEFEAE
:103FF000FFF7BCFC10BDC04690220210F8B54E463B
:104000004546DE4657468046E0B508000E0015F0EE
:104010003FFF00285ED080278346D0243F02BA4667
:10402000B344240635780120203DAB005D192C4BAC
:1040300000219C4653466362A361654406F0D0F8B4
:104040008023DB01002163620120A36106F0C8F830
:10405000434618794000C0B2FCF75CFC4020FCF7F6
:1040600059FC6B1D994628780135FCF753FCA9458E
:10407000F9D18025ED0101200021A56206F0B0F8FC
:1040800001200021A76206F0ABF801200021676241
:10409000A76106F0A5F8002101206562A56106F080
:1040A0009FF84346187901364000C0B2FCF732FC55
:1040B0004020FCF72FFC0020FCF72CFC0120002105
:1040C000A56206F08DF801200021A76206F088F8AD
:1040D000B345A7D13CBC90469946A246AB46F8BD35
:1040E0002C3802102A4BF0B557464E464546DE4660
:1040F0009A468023E0B5D02480271B028146002603
:10410000984683B001AD2406FF01F310503B2B709D
:104110000023290048466B701033AB70FCF7BAFDE2
:104120004346012063620021A36106F059F8002193
:1041300001206762A76106F053F84B4618794000EA
:10414000C0B2FCF7E7FB4020FCF7E4FB80239B4672
:1041500053461878FCF7DEFB01235B429C46E344A0
:104160005B46002BF4D101200021A76206F038F84D
:10417000434601200021A362083606F031F8402EA4
:10418000C3D103B03CBC90469946A246AB46F0BDB5
:10419000CC200020F0B505008DB0FFF7A3FF10275D
:1041A000B02302AC210028002380A770FCF772FD29
:1041B0002200194B43CB43C21B88210013802800E7
:1041C000FFF71CFFB12301AE310028003380B77028
:1041D000FCF760FD2200114B03CB03C21B882100BA
:1041E00013802800FFF70AFFB22331002800338034
:1041F000B770FCF74FFD0A4B21001A6828000292A5
:104200001B792371FFF7FAFE0021064805F0E8FF4D
:1042100001200DB0F0BDC046A0220210B022021055
:10422000BC220210C0C62D00F0B5DE464E46454603
:104230005746E0B5E34C0700A5440D000390FFF797
:1042400051FFB02398464446F03304A9C9180C80A6
:10425000D121913B490004ACFF3B641823706CAC46
:1042600021003AAC260038009946FCF713FDD64BE6
:1042700007CB07C61B78210038003370FFF7BEFE5E
:10428000D022B12304A8D1215200821813804A46BB
:104290004900431838006CA91A70FCF7FBFC290090
:1042A000200015F0EDFD21003800FFF7A7FE0021EA
:1042B000C64805F095FF012229006CA811F086F987
:1042C000002800D0AAE10590C149280008AB0DAA3A
:1042D00015F0F2FC022800D153E10023029305AB54
:1042E0000193BC4B1B680093002B00D040E1D0240D
:1042F0008023FA205B012406A36100218000802630
:1043000005F06EFF0025FA20B34F760000213D70C6
:104310008000666105F064FFFA20A661002180003C
:1043200005F05EFF0023984621AB9B46AB4BC2468F
:104330009946AB4E35805146AA4809F037FD019B9E
:10434000642259466CA811F051FF0599A64809F05E
:104350002DFD059B002B00D1C6E055460024002B07
:104360001CDCBDE0D02380221B0652015A610123D0
:104370003B706420002105F033FF4A463388126801
:1043800001339BB23380002A03D0FF221A4200D1AE
:1043900086E0059B01349C4200DBA0E0D021012295
:1043A00009064B684868DB091340800910405B0030
:1043B0001B1848685B00400910401B1848685B00E8
:1043C000000910401B1848685B00C00810401B180B
:1043D00048685B0080081040DBB21B1848685B002F
:1043E000400810404968DBB21B185B000A409B186C
:1043F000DBB29846322C13D05B4652469B1A5B5D6B
:10440000434519D13B780135002BABD0012BB0D1FE
:10441000D02380221B0652019A6100233B70A8E73B
:104420005B464246195D714809F0C0FC5B46524646
:104430009B1A5B5D4345E5D06CA812F0DDFBB2230F
:1044400004AC210003982380A23BA370FCF722FC5C
:10445000674D029A28006749FCF70CFC5D4B1B680E
:10446000002B00D00BE1B323210003982380A33B52
:10447000A370FCF70FFC2800029A5F49FCF7FAFBD7
:104480005E4809F03DFB002200205D4910F0CCFFA2
:104490005C4B9D443CBC90469946A246AB46F0BD61
:1044A000594B1B680093002B4CD0D0231B061A00DD
:1044B00098468023FA20DB0053610021800005F03C
:1044C0008FFE80234246FA20DB00936100218000AA
:1044D00005F086FE059B01349C4200DA5EE7AA46A1
:1044E000029B9A4500DC26E76CA812F085FBB223FC
:1044F00004AC210003982380A23BA370FCF7CAFB05
:104500003B4D029A28003B49FCF7B4FB314B1B683A
:10451000002B07D0D02380221B06D2005A61002234
:10452000394B1A60B323210003982380A33BA37067
:10453000FCF7B0FB28003549FCF79CFB344809F038
:10454000DFFAA0E7D0231B061A0098468023FA2042
:10455000DB0093610021800005F042FE802342468B
:10456000FA20DB0000215361800005F039FE10E7DE
:10457000D02380221B06D2009A610122224B1A60AE
:10458000B5E6244B089A9A4200D0A6E605AB06A9E8
:1045900006226CA8019311F029FE04ABDB7A04AA71
:1045A000127B1B029B1804AA527B1B029B1819004A
:1045B0001A001948029309F0F9FB0021034805F09D
:1045C0000FFE8EE6ECFBFFFFC4220210C0C62D00DA
:1045D000E422021070060020C020002034070020D2
:1045E000BE200020202302102C23021034230210AE
:1045F0002C0700203C230210742302108823021091
:104600004C1E021014040000702000204C230210E5
:10461000602302106F706B00F022021022001C4B0E
:1046200083CB83C21B683360039F21AE3800FFF742
:1046300059FD434633804B4631003800B370FCF7D8
:1046400029FB21003800FFF7D9FC434633804B4655
:1046500031003800B370FCF71DFB2900200015F075
:104660000FFC21003800FFF7C9FC0021094805F0C4
:10467000B7FD00220849002010F0D6FE08E7D0233D
:1046800080221B06D2005A610022044B1A60EAE61F
:10469000D4220210C0C62D004C1E02107020002033
:1046A0000023F0B53A4D3B4C83B0012229003A4833
:1046B000237010F0B9FE002816D101232800374ED0
:1046C000237012F0D5FA364812F0F0FA002853D1D0
:1046D00030003449FFF7A8FD0021334805F080FD84
:1046E000FCF70CFB03B0F0BDFCF7CEF9B02301AC36
:1046F0002380A03BA370D026802336061B02736262
:104700000120B361002105F06BFD8023DB017362A2
:104710000120B361002105F063FD204E3079400097
:10472000C0B2FCF7F7F86B46DF1DFCF7A3F8207862
:104730000134FCF7EFF8BC42F7D1D02480232406E3
:10474000DB0101200021A36205F04AFD80231B024A
:10475000A3620021012005F043FD1448FCF714FA80
:104760000021114805F03CFD280012F081FA0C48A8
:1047700012F09CFA0028ABD03000FFF70BFD0028A8
:10478000A6D000222900002010F04EFEA4E7C0466B
:104790004C1E0210CA200020C03E02202C07002020
:1047A000BC22021080310020C0C62D009C230210C4
:1047B000F8B5D0248026802507002406ED013602B6
:1047C0006662012065620021A661A5616662A6613C
:1047D00005F006FD65620120A561002105F000FDE0
:1047E000A5620120002105F0FBFC01200021A6624A
:1047F00005F0F6FC666201200021A66105F0F0FCE0
:1048000065620120A561002105F0EAFC38794000CD
:10481000C0B2FCF77FF80F4C25001E35FCF72AF8D4
:1048200020780134FCF776F8AC42F7D1D02480230D
:104830002406DB01A3620120002105F0D1FC8023C6
:104840001B020021A362012005F0CAFC3800FFF71B
:1048500049FCF8BDFC3A0210002330B5274C83B068
:10486000012227492748237010F0DEFD002803D1DC
:104870000123237003B030BDFCF706F9B02301AC6F
:104880002380A03BA370D02580232D061B026B62E2
:104890000120AB61002105F0A3FC8023DB016B62EA
:1048A0000120AB61002105F09BFC174B18794000FB
:1048B000C0B2FCF72FF86B46DD1DFBF7DBFF20785D
:1048C0000134FCF727F8AC42F7D1D024802324062A
:1048D000DB01A3620120002105F082FC80231B0282
:1048E0000021A362012005F07BFC0848FCF74CF98D
:1048F0000021074805F074FCBCE7C046CA20002030
:104900004C1E0210C03E02202C0700209C230210E7
:10491000C0C62D00F0B5DE464E464546574600233C
:10492000E0B5754C754DA544FB22002137A82B60DE
:10493000369308F083FFFFF78FFF714E300012F0BF
:1049400097F9704812F0B2F9002800D0A2E03000C8
:1049500012F08EF9FF2136A812F02CFA041E00D0B6
:104960008BE036A9684809F021FA5822002120A8D6
:1049700008F064FF902276AC00215200200008F07D
:104980005DFF2100614B36AA20A812F05DFE071ED4
:1049900000D088E000239A465D4B98465D4B9B46CD
:1049A0005D4B994605E0210020A812F0DBFD0028B0
:1049B00034D1A37E002B31D02B68C72B2EDC1022E4
:1049C0001100237B19401A42EDD102AB197002AAE3
:1049D000F52394465B0063441900484609F0E6F964
:1049E000F52002AB9C4640004C490CAA604415F0EF
:1049F00063F90028D7D04A4902A815F0FDF9071E2F
:104A0000D1D1484B1B68534553DD01239C462100FF
:104A100020A8E24412F0A6FD0028CAD020A812F077
:104A200069FD0A2009F01AF843462A683E48110138
:104A30005B18444658600C2008550021996059467F
:104A4000D960002A2CD1394B394A9A60394A5A61C7
:104A5000394A1A624246394B1A60FCF74FF9002274
:104A60003100002010F0E0FCBF239B009D443CBCC3
:104A700090469946A246AB46F0BD13F0FDFE2200DB
:104A800001002F4809F092F900223100002010F0B7
:104A9000CBFCE9E72B48FFF77DFB0028DFD156E789
:104AA000294B1A60CFE713F0E7FE3A0001002748D0
:104AB000E8E72868264A8446830063449B009B18E5
:104AC000009002A91800F5238C465B00634419008E
:104AD0001422019015F010FA009B01991A01434627
:104AE0009B18404659600A2111545A4600989F600D
:104AF000DA60431C2B6088E704FDFFFFD020002014
:104B00004C1E0210BC220210102402102824021095
:104B10009C310220710800102C240210E4220210A3
:104B2000A0240210141C0020C02302102C3E0220DE
:104B3000910F0010B90F001089500010783100203B
:104B4000A82302102C070020101C0020E8230210CC
:104B5000D4200020F0B5DE464E4657464546E0B527
:104B60007D4C8B46A5440400FFF776FE7B4B180076
:104B7000994612F07DF87A4812F098F8002800D093
:104B8000CCE02000FFF7AEFAB0239A4669465046C3
:104B9000183BC918088010218846684645468A3166
:104BA0004018057008AD2E0026A80F000100200057
:104BB000FCF770F86B4B07CB07C61B782900200069
:104BC0003370FFF71BFA68469822B12382181380CE
:104BD0004246C31926A920001A70FCF75BF8594613
:104BE000280015F04DF929002000FFF707FA0021F1
:104BF0005D4805F0F5FA0122594626A810F0E6FCBA
:104C0000002864D102905949584603AB12AA15F006
:104C100053F8022800D187E000239A4602AB984659
:104C20006F46534B00269B4643460122390026A877
:104C300011F0DCFA029B002B42D126A811F0DCFF18
:104C4000B2236A4610279380200001A99771FCF7D0
:104C500021F832004749280007F058FD29002000BC
:104C6000FFF7CCF95346002B18D0414B5A78102A45
:104C70006FD81A78597812028A18597918798918D0
:104C8000DA785118DA795218997808189979091848
:104C90000902521892B2110A19725A72002136484A
:104CA00005F09EFA00224946002010F0BDFBBF230C
:104CB0009B009D443CBC90469946A246AB46F0BD45
:104CC000002BB1DD59463A788A55F618ACE72A0030
:104CD0002A4B83CB83C21B6820003360FFF702FAA4
:104CE000534612AE3380434631002000B370FBF7C9
:104CF000D1FF29002000FFF781F953463380434656
:104D000031002000B370FBF7C5FF5946280015F0AD
:104D1000B7F829002000FFF771F9BFE72000FFF77F
:104D200039FA0028BED12CE7154B039A9A4200D0DD
:104D300072E702AB062698466F46434601223900C9
:104D400026A8013E11F052FA002EF6D101239A4610
:104D500067E75F708DE7C04604FDFFFF4C1E021041
:104D6000BC220210C422021040420F00E4220210B2
:104D7000983100203C230210C0C62D00D42202101E
:104D80006F706B00F0B5DE46454657464E46E0B5BF
:104D9000CBB00400FFF760FDAA4811F069FFAA4DEF
:104DA000280011F083FF002800D009E1FFF754FD2F
:104DB000A44811F05DFF280011F078FF002800D012
:104DC00004E12000FFF78EF9B02336AE04AD3100C8
:104DD000200033809B46A03B9A46B370FBF75AFFF6
:104DE0002A009A4B03CB03C2904641461A88200002
:104DF0000A809B788B702900FFF700F9B12333807C
:104E0000534631002000B370FBF744FF2B00904A5B
:104E100003CA03C341460192138820000B80937894
:104E20008B702900FFF7EAF800218A4805F0D8F9CD
:104E30008949874813F02CFD8146002800D1CBE03A
:104E4000864B9B46864B9A464A464F210EA813F046
:104E5000B1FD002800D199E00EA815F019F80EABAD
:104E60009C46002360440138037022AF20003B7051
:104E70003370FFF737F9B02302AA93802000A03BDC
:104E800003A99371FBF706FF0EAA5946280007F005
:104E90003DFC29002000FFF7B1F80021714805F022
:104EA0009FF9514633003A000EA814F005FF380070
:104EB0006D4914F0A1FF002800D176E038006B495D
:104EC00014F09AFF0028BFD1694B6A4998461A002E
:104ED000300014F0F1FE43461B6864211802C01A2A
:104EE00007F0A6FCC3B20193D02780233F061B0224
:104EF0007B620120BB61002105F072F98022D201A2
:104F00007A620021BA61012005F06AF95A4B1879DA
:104F10004000C0B2FBF7FEFCFBF7ACFC8120FBF7C6
:104F2000F9FCFBF7A7FC0198FBF7F4FC8022D20107
:104F3000BA620120002105F053F980231B020021F1
:104F4000BB62012005F04CF92000FFF7CBF8B0233D
:104F500002AA93802000A03B03A99371FBF79AFE5D
:104F6000434646491A68280007F0D0FB2900200074
:104F7000FFF744F800213B4805F032F94A464F213B
:104F80000EA813F017FD002800D065E7484613F07F
:104F9000F3FC002200202B4910F046FA4BB03CBC39
:104FA00090469946A246AB46F0BD354B3100984637
:104FB000180014F065FF41462F48FFF7CBFD7DE751
:104FC0002000FFF7E7F80028E3D1EFE62000FFF725
:104FD000E1F80028DDD1F4E62A002A4B83CB83C216
:104FE0001B6820001360FFF77DF85B463380534653
:104FF00031002000B370FBF74DFE29002000FEF7C2
:10500000FDFF5B463380534631002000B370FBF751
:1050100041FE2B000E4806C806C34146019A2000F7
:1050200013880B8093788B702900FEF7E7FF00212F
:105030000C4805F0D5F800220249002010F0F4F9E0
:10504000ACE7C0464C1E0210BC22021030240210F5
:105050003C24021040420F00044B0210482402106E
:1050600050240210C0C62D005C24021068240210D7
:1050700060060020DC1F02102C07002074240210A0
:1050800080310020D4220210F0B5DE465746454656
:105090004E46594BE0B59A461B688DB01A01574BE6
:1050A00002AC9B185968564BD0251800984614F04E
:1050B000E7FE0022534B2D061A60FBF7E5FCB023F8
:1050C0002380A03BA37080231B026B620120AB6195
:1050D000002105F085F88023DB016B620120AB61C4
:1050E000002105F07DF8484F0B2638792500400057
:1050F000C0B2FBF70FFC6E44FBF7BCFB2878013510
:10510000FBF708FCB542F7D1D02680233606DB0139
:10511000B36201200021994605F062F880231B024A
:1051200001200021B3629B4605F05AF82200374B5C
:1051300023CB23C21988200011809B7801AD937086
:10514000FBF722FDB1232B80A13BAB705B46012016
:1051500073620021B36105F043F84B46012073628E
:105160000021B36105F03CF838794000C0B2FBF78C
:10517000D1FB6B46DE1DFBF77DFB28780135FBF785
:10518000C9FBB542F7D1D02580232D06DB01AB62E8
:105190000120002105F024F880231B02AB620120CE
:1051A000002105F01DF84146200014F069FE2000A2
:1051B000FBF7EAFC0021164805F012F841463800DA
:1051C000FFF7C8FC002352461360124A1360124BCB
:1051D0001A68124B1A60FBF791FD114B114A9A6045
:1051E000114A5A61114A1A620DB03CBC9046994668
:1051F000A246AB46F0BDC046482000209C310220AC
:1052000080310020141C00202C070020882402106C
:10521000C0C62D00442000202845022078310020FF
:105220002C3E0220910F0010B90F00100D1000103D
:10523000F0B54E4657464546DE468023E0B5D025BC
:10524000BE4C9B0127002D06AB61BD4B0126994644
:1052500083B008370DE023780022984601214046AC
:1052600004F09AF83300424693400134AB62BC42EA
:1052700008D04B461B68002BEDD1237800229846BE
:105280000021ECE7D0258023FA202D06DB00002149
:105290006B61800004F0A4FF80248023FA20640066
:1052A0009B000021AC618000AB6104F099FF80237A
:1052B000FA201B01AB610021800004F091FFFA206D
:1052C0000021800004F08CFF8023FA205B01002184
:1052D000AB61800004F084FF0027FA20994B002185
:1052E0001F7080006C61984604F07AFFFA2000215C
:1052F000AC61800004F074FF934E944B3780994664
:10530000934F17E080235B016B61424601231370CA
:105310006420002104F064FF4A4633881268013398
:105320009BB23380002A02D0FF221A420FD0013CE8
:10533000002C22D043461B78002BE3D0012BE7D171
:1053400080235B01AB61424600231370E0E73B68BA
:10535000002B75D08023FA20DB009A4600216B6178
:10536000800004F03DFF5346FA200021AB6180002D
:10537000013C04F035FF002CDCD180235B0001935D
:10538000734B9B468022734D52002B009446D024D1
:1053900063449A460127240616E080235B0163617B
:1053A00043461A706420002104F01AFF4A463388ED
:1053B000126801339BB23380002A02D0FF221A42C6
:1053C0004FD00135AA4563D0012263686168DB09CB
:1053D0001340890911405B005B1861685B00490953
:1053E00011405B1861685B00090911405B18616836
:1053F0005B00C90811405B1861685B0089081140B7
:10540000DBB25B1861685B0049081140DBB25B18D6
:1054100061685B0011405B182978DBB2CB1A5942F6
:105420004B415B421F4043461B78002BB5D0012BFC
:10543000B8D180235B01A361424600231370B1E71A
:105440008023FA20DB009A46AB610021800004F043
:10545000C7FE5346FA2000216B61800004F0C0FEB5
:1054600065E75B461B68002B38D08023FA20DB0001
:1054700000216361800004F0B3FE8023FA20DB008A
:105480000021A3618000013504F0AAFEAA459BD14A
:10549000002F34D1019B0133FF331A0001932E4BAF
:1054A0009A4200D06EE7D0248023FA201B01240604
:1054B00000216361800004F093FE8023FA209B00AA
:1054C00063610021800004F08BFEFA20002180003F
:1054D00004F086FE214B1B68019327E08023FA200D
:1054E000DB00A3610021800004F07AFE8023FA2013
:1054F000DB0000216361800004F072FE61E7D024CC
:105500008023FA201B01240600216361800004F03F
:1055100067FE8023FA209B0000218000636104F075
:105520005FFEFA200021800004F05AFE019803B0CB
:105530003CBC90469946A246AB46F0BD24380210CA
:1055400070060020C0200020BE200020340700206C
:10555000702000207430002000FF010098310220EC
:10556000F0B5454657464E46DE468023E0B5D02589
:105570009B0185B02D060190AB6108239946073B3E
:105580009846954C954FA1443B680022012126780E
:10559000002B00D10021300003F0FEFE4346B34053
:1055A0000134AB62A145EFD1D0258023FA202D062E
:1055B000DB0000216B61800004F012FE8024802358
:1055C000FA2064009B000021AC618000AB6104F014
:1055D00007FE8023FA201B01AB610021800004F04C
:1055E000FFFDFA200021800004F0FAFD8023FA205C
:1055F0005B010021AB61800004F0F2FD0026FA207F
:10560000774B00211E7080006C61984604F0E8FD25
:10561000FA200021AC61800004F0E2FD714F019B93
:105620003E80002B00D0B7E16F4808F069FA6F4860
:1056300008F0BCFB6E4B00269B466E4B9A466E4BA9
:10564000994618E080235B01636143461D70642026
:10565000002104F0C5FD4A463B88126801339BB225
:105660003B80002A02D0FF221A4248D08023013614
:105670005B009E425DD033073CD0D0240125240638
:1056800061686368C90929409B092B404900C91812
:10569000636849005B092B40C918636849001B090E
:1056A0002B40C91863684900DB082B40C9186368A0
:1056B00049009B082B40C9B2C918636849005B08C0
:1056C0002B40C9B2C918636849002B40C9185B4612
:1056D000C9B29955504608F069FB43461B78002B28
:1056E000B0D0012BB3D180235B01A36142460023DC
:1056F0001370ACE73100414808F058FBBDE7D024F7
:1057000080253F4B24061B68ED000093002B56D0EC
:10571000FA2000218000656104F062FDFA2000217A
:10572000A561800004F05CFD802301365B009E4291
:10573000A1D1D0248023FA2024061B01636100211B
:10574000800004F04DFD8023FA209B00636100215E
:10575000800004F045FDFA200021800004F040FDA7
:1057600000254B4601261D60FFF762FD4B46254C88
:105770001E602060FFF75CFD234F010002003860CF
:10578000224808F013FB22682148110008F00EFBA4
:105790003B6824689846A3423EDD1E4808F006FB9D
:1057A0004B460A201E6008F059F9019B002B3FD19F
:1057B00005B03CBC90469946A246AB46F0BDFA20E7
:1057C0000021A561800004F00BFDFA200021656135
:1057D000800004F005FD49E724380210700600201F
:1057E000C0200020BE200020042502101C2502102D
:1057F0007430002034250210340700202C250210BC
:105800007020002028200020542000203C25021079
:1058100068250210942502107E4808F0C7FA4B460E
:105820000A201D6008F01AF9019BA046002BBFD08A
:10583000B12303AC2380A13BA370D02580232D0688
:105840001B026B620120AB61002104F0C9FC8023C4
:105850002700DB016B620120AB61002104F0C0FC7A
:105860006D4D28794000C0B2FBF754F802ABDE1D45
:10587000FBF700F838780137FBF74CF8B742F7D15F
:10588000D02780233F06DB01BB62012000219A461E
:1058900004F0A6FC80231B02BB62012000219B4672
:1058A00004F09EFC424628005C49FBF7E3F9B22372
:1058B0002380A23BA3705B4601207B620021BB6179
:1058C00004F08EFC534601207B620021BB6104F092
:1058D00087FC287927004000C0B2FBF71BF8FAF7D5
:1058E000C9FF38780137FBF715F8B742F7D1D02751
:1058F00080233F06DB0101200021BB6204F070FC25
:1059000080231B02BB620120002104F069FC4B468E
:105910001B68002B7CD1424A28004249FBF7AAF9B8
:10592000B3232380A33BA370D02780233F061B0211
:105930007B6201200021BB6104F052FC8023DB016B
:1059400001207B620021BB6104F04AFC2879400001
:10595000C0B2FAF7DFFFFAF78DFF20780134FAF7CB
:10596000D9FFB442F7D1D02480232406DB01A362FF
:105970000120002104F034FC80231B02A3620120DB
:10598000002104F02DFC28002749FBF773F90021C2
:10599000264804F025FC0BE7FBF776F8B02303ACB0
:1059A0002380A03BA37080231B026B620120AB61AC
:1059B000002104F015FC8023DB016B620120AB6148
:1059C000002104F00DFC144D28794000C0B2FAF714
:1059D000A1FF02ABDE1DFAF74DFF20780134FAF784
:1059E00099FFB442F7D1D02480232406DB01A362BF
:1059F0000120002104F0F4FB80231B020120002180
:105A0000A36204F0EDFB28000949FBF733F90BE62C
:105A1000084A81E7B02502102C070020D02402108C
:105A2000E4240210701E0210CC250210404B4C00E2
:105A3000EC240210DC24021010B50120FFF790FDC9
:105A4000FBF75CF910BDC04610B50020FFF788FDDC
:105A500010BDC046D02370B5414D1B062A685B6857
:105A6000D34001221A424ED13E4C2368052B04DC60
:105A700001332360062B00D16BE06379002B2CD11E
:105A800023796371D0231B066A685B68D3400122C7
:105A90001A4245D1E368052B03DC0133E360062B92
:105AA0005AD0637C002B4AD1237C6374D0231B061D
:105AB000AA685B68D34001221A4215D1A369052B5D
:105AC00003DC0133A361062B40D0637F002B18D089
:105AD000237F002B13D0637770BD2379002BD0D1A7
